:100000000C9434000C9446000C9446000C94680048
:100010000C9446000C9446000C9446000C94460048
:100020000C9446000C9446000C9446000C94460038
:100030000C9446000C9446000C9446000C94460028
:100040000C9446000C9446000C9446000C94460018
:100050000C9446000C9446000C9446000C94460008
:100060000C9446000C94460011241FBECFEFD8E03C
:10007000DEBFCDBF21E0A0E0B1E001C01D92A13004
:10008000B207E1F70E9448000C9407010C940000AD
:100090000E945A00CEEF0E94670085B18C2785B977
:1000A0002FEF80E792E0215080409040E1F700C0C0
:1000B0000000F1CF209A80E887BD84B5806884BDB8
:1000C00084B5836084BD85B5826085BD089508953B
:1000D0001F920F920FB60F9211240F900FBE0F9028
:1000E0001F9018951092B9008CE08093B80084E0BE
:1000F0008093BC00089584EA8093BC008091BC008A
:1001000087FFFCCF0895089584E98093BC0008958B
:100110008093BB0084E88093BC008091BC0087FF83
:10012000FCCF089584EC8093BC008091BC0087FFD5
:10013000FCCF8091BB00089584E88093BC0080913F
:10014000BC0087FFFCCF8091BB0008958091B9006F
:10015000887F0895CF93C62F0E947B009091B900AD
:10016000987F983011F08FEF14C080EA0E948800C9
:100170009091B900987F9832B1F78C2F0E94880037
:100180008091B900887F883271F784E98093BC0040
:1001900080E0CF9108950F931F93CF93DF931F9229
:1001A000CDB7DEB78B0189830E947B009091B900A7
:1001B000987F8981983011F08FEF23C00E948800CA
:1001C0008091B900887F8832B9F70E947B008091C6
:1001D000B900887F803181F780E00E94880080919B
:1001E000B900887F803441F70E949C00F801808329
:1001F0008091B900887F8835F9F684E98093BC0046
:1002000080E00F90DF91CF911F910F910895F894A6
:02021000FFCF1E
:00000001FF
